:0400000002001332B5
:03000B0002088068
:07006C0075210075220175EA
:060073002306E4F524F56C
:0500790025E4F526F569
:05007E0027E4F528F560
:0500830029E4F52AF557
:050088002BE4F52CF54E
:05008D002DE4F52EF545
:050092002F7530007520
:06009700367E753730755E
:06009D00386D753979751C
:0600A3003A33753B5B756A
:0600A9003C5F753D70751F
:0600AF003E7F753F7B75EA
:0600B500407775411F7544
:0600BB00424E75433D7545
:0600C100444F7545477530
:0600C7004C00754D0075B0
:0600CD004E00754F0075A6
:0600D3005000755100759C
:0600D90052007553007592
:0600DF0054007555007588
:0600E5005600755700757E
:0600EB0058007559007574
:0600F1005A00755B00756A
:0600F7005C0075644A750F
:0600FD00656A75660875D6
:0601030067DA75680A7559
:0601090069BA756A0A756F
:06010F006B22756C1475F3
:060115006DD4756E147537
:06011B006F707570157590
:0601210071D47572067531
:060127007314E4F574F509
:04012D0075F576F5F9
:0501310077E4F578F50C
:0401360079F57AF5E8
:01013A007B49
:03013B0002000EB1
:05000E0012099080FEC4
:0A013E00C281120259C28002025968
:0D014800C281120259D280120259D28102E6
:0201550002594D
:0A015700A2009281120259D2801218
:070161000259C2800202599D
:0E016800D280120259A28192D7120259C2808F
:06017600120259A2D7227B
:04017C00AA827B00D8
:03018000BB0800B9
:0A0183005025EA30E704D281800223
:02018D00C2812D
:0E018F00C002C003120259D280120259C2806F
:0D019D00120259D003D002EA2AFA0B80D6D4
:0301AA00020168E7
:0601AD007A00D2817B0004
:0301B300BB080086
:0E01B6005029EA2AFAD280C002C00312025970
:0E01C400D003D002A281E4334202C002C00385
:0E01D200120259C280120259D003D0020B80D3
:0101E000D24C
:0301E1008A8222ED
:0A01E400C008858108AA82C002123B
:0A01EE00013ED0028A8212017CE576
:0A01F8000824FDF8868212017CE560
:0A0202000824FCF8868212017C1229
:05020C000148D00822AA
:0A021100C008858108AA82C002120D
:0C021B00013ED0028A82C00212017CE584
:0A0227000824FDF8868212017C1203
:0D023100014812013ED00274014AF582120C
:0D023E00017C1201ADAA82D2F0C00285F051
:05024B00201201571212
:090250000148D0028A82D0082284
:020259007A0524
:03025B00DAFE22A6
:0A025E00AA82AB837C007D007E00C5
:09026800C3ED9AEE9B50138C07C4
:03027100BF5A0071
:0502740050030F80F8AB
:090279008F040DBD00E90E80E6C2
:010282002259
:0E02830090006412025EE4C0E0746BC0E0758F
:0D02910082D012034B15811581900064127C
:0E029E00025E7407C0E07468C0E07582D01282
:0E02AC00034B158115817401C0E0746BC0E036
:0E02BA007582D012034B158115817403C0E0CC
:0E02C800741AC0E07582D012034B15811581A7
:0E02D600E4C0E07419C0E07582D012034B152D
:0C02E400811581E522C40354F8FAC00221
:0E02F000741BC0E07582D012034B158115817E
:0C02FE00E521C40354F8FAC002741CC0CF
:0E030A00E07582D012034B158115817403C07B
:0E031800E0741DC0E07582D012034B158115F4
:0D032600817422C0E07437C0E07582D012EF
:0E033300034B15811581E4C0E07438C0E075FD
:0A03410082D012034B1581158122B2
:08034B00C008858108AA82E5C3
:0A0353000824FCF8E6C0E0E50824E9
:0E035D00FDF8E6C0E08A821201E415811581E8
:03036B00D0082295
:08036E00C008858108AA82E5A0
:0C0376000824FDF8E6C0E08A82120211A3
:050382001581D00822E6
:0A038700C008858108C082C083C051
:0D039100F005810581743BC0E07582D0123B
:0C039E00036EAD8215818D30743CC0E010
:0C03AA007582D012036EAD8215818D317A
:0E03B600743DC0E07582D012036EAD821581D9
:0C03C4008D32743EC0E07582D012036ED2
:0C03D000AD8215818D33743FC0E0758252
:0C03DC00D012036EAD8215818D34744088
:0D03E800C0E07582D012036EAD8215818DCC
:0603F50035AE307D00AFC3
:0A03FB00317A00EF4205EA4206A83D
:0C040500080886820886830886F0ED1245
:080411000DC1A3EE120DC1A8FC
:0C0419000808740226FAE40836FB088686
:0A04250004AD32E5082404F808A62F
:0A042F0005187600AF337D00E508E4
:0E0439002404F8E6420708E642058A828B8317
:0C0447008CF0EF120DC1A3ED120DC1A846
:0C0453000808740426FAE40836FB08864A
:0A045F0004AD34E5082404F808A6F3
:0A04690005187600AF357D00E508A8
:0E0473002404F8E6420708E642058A828B83DD
:0C0481008CF0EF120DC1A3ED120DC1852F
:05048D000881D00822E7
:0A049200C008858108C082C083C045
:0D049C00F0058105817448C0E07582D01222
:0C04A900036EAD8215818D357447C0E0F4
:0C04B5007582D012036EAD8215818D346B
:0E04C1007446C0E07582D012036EAD821581C4
:0C04CF008D337445C0E07582D012036EBE
:0C04DB00AD8215818D327444C0E0758242
:0C04E700D012036EAD8215818D3174437C
:0D04F300C0E07582D012036EAD8215818DC0
:0A050000308D067D00AF317A00EF68
:0C050A004205EA4206A80808868208861E
:0E051600830886F0ED120DC1A3EE120DC1A8F0
:0C0524000808740226FAE40836FB08867A
:0A05300004AD32E5082404F808A623
:0A053A0005187600AF337D00E508D8
:0E0544002404F8E6420708E642058A828B830B
:0C0552008CF0EF120DC1A3ED120DC1A83A
:0C055E000808740426FAE40836FB08863E
:0A056A0004AD34E5082404F808A6E7
:0A05740005187600AF357D00E5089C
:0E057E002404F8E6420708E642058A828B83D1
:0C058C008CF0EF120DC1A3ED120DC18523
:050598000881D00822DB
:0E059D007480C0E0746BC0E07582D012034B16
:0A05AB001581158190006402025EC4
:0405B500AA827B009B
:0305B900BB08007C
:0E05BC00500CC2A2EA2A92A4FAD2A20B80EF3F
:0105CA00220E
:0605CB00C0088581081242
:0A05D10005B5E50824FDF886821246
:0505DB0005B5D0082267
:0A05E000C008858108C082C083C0F6
:0505EA00F07D007E0021
:0C05EF00C3ED9408EE9400400302069255
:0C05FB00C2A3E50824F8F8ED26FFEE0886
:0E06070036FA0886038F828A838BF0120EA0CB
:0C0615002436F886028D030BC003C005DC
:0E062100C006C0028B821205CB1581D006D018
:0C062F0005D003A80808ED26FAEE0836F6
:0E063B00FC0886078A828C838FF0120EA0FACC
:0E064900C003C005C006C0028B821205CB158F
:0C06570081D006D005D003E50824FBF894
:0E066300ED26FAEE0836FC0886078A828C83A4
:0E0671008FF0120EA0FAC005C006C0028B82E8
:0E067F001205CB1581D006D005D2A30DBD000B
:02068D00010E5C
:03068F000205EF72
:06069200850881D008225A
:0A069800C008858108C082C083C03D
:0C06A200F005810581E50824F7F8C3E4A9
:0E06AE0096E40896E4089674800886F063F0DF
:0C06BC008095F05012E50824F7F8860540
:0B06C8000886060886070886028015D9
:0C06D300E50824F7F8C3E496FD08E4965F
:0906DF00FE08E496FF08E496FA17
:0C06E800E5082404F8A60508A6067A0020
:0206F4007B0089
:0C06F600C3EA9408EB940040030207CA1A
:0E070200C2A3C002C003740AC0E0E4C0E0E578
:0C071000082404F88682088683120EBCC0
:0C071C00AC8215811581D003D002EC24C2
:0C07280036F886048A070FC002C003C028
:0E07340007C0048F821205CB1581D007D003B9
:0C074200D002E50824FBF8EA26FCEB08D6
:0E074E0036FD0886068C828D838EF0120EA07A
:0E075C00FCC002C003C007C0048F821205CB90
:0C076A001581D007D003D002A80808EACF
:0E07760026FCEB0836FD0886068C828D838EED
:0E078400F0120EA0FCC002C003C0048F82124F
:0C07920005CB1581740AC0E0E4C0E0E56E
:0C079E00082404F88682088683120D905F
:0D07AA00AC82AD8315811581D003D002E52E
:0C07B700082404F8A60408A605D2A30A32
:0407C300BA00010B6C
:0307C7000206F631
:0607CA00850881D0082221
:0407D000C2A37A0343
:0E07D400C0027401C0E075820C1205CB1581C5
:0A07E200D002DAEED2A3C2A37A031C
:0E07EC00C002E4C0E075820F1205CB1581D06B
:0907FA0002DAEFD2A3C2A37A03D4
:0E080300C002E4C0E07582091205CB1581D059
:0908110002DAEFD2A3C2A37A03BC
:0E081A00C0027407C0E075820B1205CB158179
:0A082800D002DAEED2A3C2A37A03D5
:0E083200C002740EC0E075820A1205CB15815B
:08084000D002DAEED2A37A0126
:050848007408B5020078
:06084D00401DC2A37B0365
:0E085300C002C003E4C0E08A821205CB15810A
:0B086100D003D002DBECD2A30A80DC45
:01086C002269
:07086D00755001E4F54AF5A6
:050874004BE4F548F51E
:0508790049E4F546F51D
:02087E0047220F
:0C088000C020C0E0C0F0C082C083C002F5
:0E088C00C003C004C005C006C007C000C00104
:0C089A00C0D075D000758CFC758A180564
:0608A60074E4B5740C05BA
:0508AC0075B57507059C
:0508B10076B57602059A
:0108B60077CA
:0A08B70020B210E54E7012AA4F05A2
:0908C1004FBA0A0B754E018006C6
:0608CA00754F00754E00A1
:0C08D000740AC0E0E4C0E0C0E0C0E085B5
:0608DC007482857583851E
:0508E20076F0E577123D
:0E08E7000DDAAA82AB83ACF0FDE58124FCF5AE
:0C08F50081EA4B4C4D700A7401B55005AF
:05090100E54CF4F54C8B
:0C0906007464C0E0E4C0E0C0E0C0E08524
:06091200748285758385E7
:0509180076F0E5771206
:0E091D000DDAAA82AB83ACF0FDE58124FCF577
:0C092B0081EA4B4C4D700A7401B5500578
:05093700E54DF4F54D53
:0A093C0074E8B5740F7403B5750A72
:0A094600E4B57606E4B577028002FE
:02095000801B0A
:070952000578E4B5780C05FF
:0509590079B5790705E6
:05095E007AB57A0205E4
:010963007B18
:06096400E4F574F575F5E1
:03096A0076F577A8
:0C096D00A2B6E433F552D0D0D001D00087
:0E097900D007D006D005D004D003D002D08322
:09098700D082D0F0D0E0D0203283
:0A099000C008E581F5082404F58194
:0C099A00E4FAFBE5082403F87600D281A3
:0E09A600D280C002C0031207D0120283D00319
:0E09B400D002758901758CFC758A18D2AFD2FD
:0609C200A9D28C75500063
:0709C8007401B55002800329
:0309CF00020D6EA8
:0709D200E54D7003020C501B
:0A09D90090002475F040120387AA75
:0409E30024AB25A874
:0609E7000808A62608A680
:0409ED0027AF46AD3D
:0A09F10048AE4AC374A09A748F8BBD
:0C09FB00F063F08095F0E433FC6035A858
:0C0A07000808C374A096748F0886F06382
:0C0A1300F08095F05022E5082403F876EE
:0A0A1F0010C3E5489407E549648020
:070A290094804003020B362C
:0B0A3000C007E54804FDD007020B36AC
:0C0A3B00E5082404F8C3EA9460EB648032
:0C0A47009470E433F6E5082404F8E6603F
:0C0A530035A80808C374A096748F0886AC
:0C0A5F00F063F08095F05022E5082403BD
:0A0A6B00F87620C3E54A9407E54B36
:090A7500648094804003020B36FA
:0B0A7E00C007E54A04FED007020B365B
:0A0A8900E5082404F8E66029A80837
:0E0A930008C3E6946008E664809470501AE58B
:090AA100082403F87640E54845FD
:060AAA00497003020B3647
:0A0AB000C007E54814FDD007807C64
:0C0ABA00EC6026A80808C3E6946008E67B
:0C0AC600648094705017E5082403F87653
:0A0AD20080E54A454B605DC007E572
:070ADC004A14FED00780530D
:0C0AE300A80808C374A096748F0886F061
:0A0AEF0063F08095F05039E54645AC
:0A0AF90047702A7407B54806E4B5FB
:040B03004902800221
:020B0700801D4F
:0A0B09007407B54A06E4B54B0280FC
:010B130002DF
:020B140080104F
:0C0B1600C002C003E54604FF7E007D0025
:040B2200D003D0022A
:090B2600E5082403F876048007B9
:070B2F00E5082403F876023B
:0A0B36007C00EFB54606ECB547025F
:020B4000800330
:030B4200020C4260
:070B4500E54645476003028D
:020B4C000BCAD2
:0C0B4E00C007C0048D047F00ECB5480A0D
:0A0B5A00EFB54906D004D00780284B
:0C0B6400D004D007C007C004ED2464F8E2
:0B0B70008604854AF005F074808002C6
:020B7B00C313A2
:0C0B7D00D5F0FB5CD004D0076005AD484B
:030B8900020C4219
:0C0B8C00C007C0048E047F00ECB54A0BCB
:0B0B9800EFB54B07D004D007020C4261
:0B0BA300D004D007C007C004E54824C0
:0C0BAE0064F886048EF005F0748080026C
:020BBA00C31363
:0C0BBC00D5F0FB5CD004D007607CAE4A92
:020BC800807833
:0C0BCA00C007C0048D047F00ECB5480A91
:0A0BD600EFB54906D004D0078027D0
:0C0BE000D004D007C007C004ED246CF85E
:0B0BEC008604854AF005F0748080024A
:020BF700C31326
:0C0BF900D5F0FB5CD004D0076004AD48D0
:020C0500803B32
:0C0C0700C007C0048E047F00ECB54A0A50
:0A0C1300EFB54B06D004D007802592
:0B0C1D00D004D007C007C004E5482445
:0C0C28006CF886048EF005F074808002E9
:020C3400C313E8
:0C0C3600D5F0FB5CD004D0076002AE4A91
:050C42008F468C478D78
:050C4700487549008E14
:040C4C004A754B009A
:070C5000E54C7003020D3AB0
:0A0C5700E5082403F8E64401F6E581
:060C61004645477063FCEC
:030C6700BC0800C6
:0A0C6A00500FEC245CF8EC2464F950
:070C74008705A6050C80ECCA
:080C7B00E548245CF8860485BD
:080C83004AF005F074808002C4
:020C8B00C31391
:0E0C8D00D5F0FB4CF68A04EBFD3395E0FEFF3C
:0D0C9B00C002C003C004C005C006C007743D
:0A0CA8006CC0E07400C0E07440C0AE
:0E0CB200E090005C75F040120698E58124F990
:090CC000F581D003D002020D6E93
:0A0CC9007401B54606E4B547028049
:010CD300031D
:030CD400020D6EA0
:020CD7007C009F
:030CD900BC080054
:0A0CDC00500FEC245CF8EC246CF9D6
:070CE6008705A6050C80EC58
:080CED00E548245CF88604854B
:080CF5004AF005F07480800252
:020CFD00C3131F
:0E0CFF00D5F0FB4CF68A04EBFD3395E0FEFFCA
:0D0D0D00C002C003C004C005C006C00774CA
:0A0D1A005CC0E07400C0E07440C04B
:0E0D2400E090006475F040120698E58124F915
:080D3200F581D003D0028034EA
:0E0D3A008A04EBFD3395E0FEFFC002C003C04B
:0C0D480004C005C006C007746CC0E07455
:0C0D540000C0E07440C0E090006475F046
:0E0D600040120698E58124F9F581D003D002F7
:0C0D6E007401B54E0BC002C00312086DEA
:040D7A00D003D002D0
:0C0D7E00E5082403F8E6F4F5900209C82B
:060D8A00850881D008225B
:0A0D9000E58124FEF8E6F918E6F804
:050D9A007A10E4FBFCEF
:0E0D9F00E58225E0F582E58333F583EB33FB37
:0E0DAD00EC33FCEB98F5F0EC994006FCABF053
:030DBB004382016F
:030DBE00DADF2257
:06004200E478FFF6D8FD92
:080020007900E94400601B7A3D
:0500280000900F0578B7
:03002D000075A0BB
:0A00300000E493F2A308B8000205F3
:08003A00A0D9F4DAF275A0FF71
:0E0DC10020F71030F6118883A88220F507F67F
:050DCF00A883758300FC
:010DD40022FC
:030DD500F280F7B2
:020DD800F02207
:080048007800E84400600A7929
:030050000075A098
:0600530000E4F309D8FCF3
:080059007800E84400600C7916
:0B00610000900000E4F0A3D8FCD9FAE6
:0E0DDA00F9C2D530E715D2D5E4C39582F58273
:0D0DE800E49583F583E495F0F5F0E499F9C6
:0E0DF500E58124FBF8860208860308860408C0
:0E0E0300E6FD30E70DE4C39AFAE49BFBE49CA5
:040E1100FCE49DFD63
:0E0E1500120E3F30D512E4C39582F582E495AB
:0A0E230083F583E495F0F5F0E499FF
:010E2D0022A2
:0E0E2E00F9E58124FBF8860208860308860495
:030E3C0008860520
:0B0E3F007800EA4B4C4D60587800C36F
:0E0E4A0008ED20E727EA25E0FAEB33FBEC3356
:0E0E5800FCED33FDE5829AE5839BE5F09CE915
:0E0E66009D50E1C3ED13FDEC13FCEB13FBEA12
:020E740013FA6F
:0E0E7600E5829AE5839BFEE5F09CFFE99D4036
:0B0E84000AF98FF08E83E5829AF58258
:0E0E8F00C3ED13FDEC13FCEB13FBEA13FAD8D2
:020E9D00D8E992
:010E9F002230
:0300130075817B79
:0A001600120F01E582600302000EE4
:0E0EA00020F71430F6148883A88220F507E6A8
:060EAE00A88375830022F9
:030EB400E280F7E2
:030EB700E493229F
:020EBA00E02234
:0A0EBC00E58124FEF8860118860087
:060EC600E84960367A01E4
:0E0ECC00E825E0F8E933400EF9E58298E58369
:060EDA009940030A80ECC0
:020EE000C3E964
:050EE20013F9E813F80C
:0E0EE700C3E58298F5F0E583994005F5838513
:020EF500F08289
:090EF700C3E913F9E813F8DAE786
:010F000022CE
:040F010075820022D3
:00000001FF
