:0400000002001332B5
:03000B000204D814
:07006C0075087E750930756F
:060073000A6D750B7975A2
:060079000C33750D5B75F0
:06007F000E5F750F7075A5
:06008500107F75117B7570
:06008B00127775131F75CA
:06009100144E75153D75CB
:06009700164F75174775B6
:06009D001A00751B077537
:0600A3001C13751DD3754E
:0600A9001E83751F837524
:0600AF0020D3752113753A
:0600B5002207752300750F
:0600BB00240C7525EC7514
:0600C10026707527707522
:0600C70028EC75290C7500
:0600CD002A00752B0175ED
:0600D3002C02752D0375DF
:0600D9002E04752F0575D1
:0600DF00300675310775C3
:0600E5003208E4F533F5DA
:0400EB0034F535F5BE
:0100EF0036DA
:0300F00002000EFD
:05000E001204FC80FE5D
:0400F300AA827B0062
:0300F700BB080043
:0E00FA00500CC2A2EA2A92A4FAD2A20B80EF06
:0101080022D4
:06010900C03785813712AA
:0A010F0000F3E53724FDF8868212A4
:0501190000F3D03722C5
:0A011E00C037858137C082C083C05E
:05012800F07D007E00E7
:0C012D00C3ED9408EE940040030201D0E2
:0C013900C2A3E53724F8F8ED26FFEE081D
:0E01450036FA0886038F828A838BF012056DCE
:0C0153002408F886028D030BC003C005D1
:0E015F00C006C0028B821201091581D006D0A5
:0C016D0005D003A83708ED26FAEE08368E
:0E017900FC0886078A828C838FF012056DFACF
:0E018700C003C005C006C0028B82120109151C
:0C01950081D006D005D003E53724FBF82C
:0E01A100ED26FAEE0836FC0886078A828C836B
:0E01AF008FF012056DFAC005C006C0028B82EB
:0E01BD001201091581D006D005D2A30DBD0098
:0201CB00010E23
:0301CD0002012DFF
:0601D000853781D03722C3
:0A01D600C037858137C082C083C0A6
:0C01E000F005810581E53724F7F8C3E441
:0E01EC0096E40896E4089674800886F063F0A6
:0C01FA008095F05012E53724F7F88605D8
:0B02060008860608860708860280159F
:0C021100E53724F7F8C3E496FD08E496F6
:09021D00FE08E496FF08E496FADD
:0C022600E5372404F8A60508A6067A00B7
:020232007B004F
:0C023400C3EA9408EB94004003020308A6
:0E024000C2A3C002C003740AC0E0E4C0E0E53F
:0C024E00372404F8868208868312058994
:0C025A00AC8215811581D003D002EC2489
:0C02660008F886048A070FC002C003C01D
:0E02720007C0048F821201091581D007D00346
:0C028000D002A83708EA26FCEB0836FD87
:0E028C000886068C828D838EF012056DFCC0F4
:0E029A0002C003C007C0048F82120109158143
:0C02A800D007D003D002E53724FBF8EAB1
:0E02B40026FCEB0836FD0886068C828D838EB4
:0E02C200F012056DFCC002C003C0048F821252
:0C02D00001091581740AC0E0E4C0E0E5FB
:0C02DC00372404F8868208868312053C53
:0D02E800AC82AD8315811581D003D002E5F5
:0C02F500372404F8A60408A605D2A30ACA
:04030100BA00010B32
:03030500020234BD
:06030800853781D0372289
:0A030E00C037858137C082C083C06C
:0C031800F0C0E0A83708C3E496E40896A3
:0E032400E4089674800886F063F08095F0502F
:0C03320010A83708860608860708860217
:05033E00088603801396
:0C034300A83708C3E496FE08E496FF0803
:07034F00E496FA08E496FBB6
:040356007A017B00AD
:0E035A00C374089AE49B406AEE4F6066C002CE
:0E036800C003C006C007740AC0E0E4C0E08E07
:0E037600828F83120589AC8215811581D00714
:0C038400D006D003D002EC2408F8860458
:0E0390008A05C002C003C006C007C0048D82EB
:0E039E001201091581D007D006740AC0E0E4F0
:0E03AC00C0E08E828F8312053CAC82AD8315BB
:0E03BA00811581D003D0028C068D070ABA008F
:0403C800910B808E87
:0C03CC008A048B05A83708C3E6940A08D1
:0E03D800E6940008E6940008E66480948050E5
:0E03E60022C374089AE49B401A74012AFCE4B6
:0D03F4003BFDC004C0057401C0E08A821208
:0804010001091581D005D004AA
:050409000CBC00010D18
:04040E008C028D03CC
:0E041200C374089AE49B401B8A04C002C00316
:0E042000E4C0E08C821201091581D003D002E5
:07042E000ABA00E00B80DDBB
:06043500853781D037225B
:04043B00C2A37A03DB
:0E043F00C0027401C0E075820C120109158123
:0A044D00D002DAEED2A3C2A37A03B4
:0E045700C002E4C0E075820F1201091581D0C9
:0904650002DAEFD2A3C2A37A036C
:0E046E00C002E4C0E07582091201091581D0B8
:09047C0002DAEFD2A3C2A37A0355
:0E048500C0027407C0E075820B1201091581D8
:0A049300D002DAEED2A3C2A37A036E
:0E049D00C002740EC0E075820A1201091581BA
:0804AB00D002DAEED2A37A01BF
:0504B3007408B5020011
:0604B800401DC2A37B03FE
:0E04BE00C002C003E4C0E08A82120109158169
:0B04CC00D003D002DBECD2A30A80DCDE
:0104D7002202
:0E04D800C0E0C0D075D000758CFC758A180588
:0604E60033E4B5330C0500
:0504EC0034B5340705E2
:0504F10035B5350205E0
:0104F60036CF
:0504F700D0D0D0E0327E
:0E04FC00758901758CFC758A18D2A9D2AFD211
:0A050A008C75908F12043B75900071
:08051400759081C033C034C0B2
:04051C0035C036743C
:0A05200023C0E07400C0E07440C086
:0E052A00E090001B75F0401201D6E58124F927
:04053800F58180D8F1
:0A053C00E58124FEF8E6F918E6F860
:050546007A10E4FBFC4B
:0E054B00E58225E0F582E58333F583EB33FB93
:0E055900EC33FCEB98F5F0EC994006FCABF0AF
:03056700438201CB
:03056A00DADF22B3
:06004200E478FFF6D8FD92
:080020007900E94400601B7A3D
:05002800009005D278F4
:03002D000075A0BB
:0A00300000E493F2A308B8000205F3
:08003A00A0D9F4DAF275A0FF71
:080048007800E84400600A7929
:030050000075A098
:0600530000E4F309D8FCF3
:080059007800E84400600C7916
:0B00610000900000E4F0A3D8FCD9FAE6
:03001300758137BD
:0A0016001205CEE582600302000E21
:0E056D0020F71430F6148883A88220F507E6E4
:06057B00A8837583002235
:03058100E280F71E
:03058400E49322DB
:02058700E02270
:0A058900E58124FEF88601188600C3
:06059300E84960367A0120
:0E059900E825E0F8E933400EF9E58298E583A5
:0605A7009940030A80ECFC
:0205AD00C3E9A0
:0505AF0013F9E813F848
:0E05B400C3E58298F5F0E583994005F583854F
:0205C200F082C5
:0905C400C3E913F9E813F8DAE7C2
:0105CD00220B
:0405CE007582002210
:00000001FF
