:0400000002001332B5
:03000B0002116E71
:07006C0075210075220175EA
:060073002306E4F524F56C
:0500790025E4F526F569
:05007E0027E4F528F560
:0500830029E4F52AF557
:050088002BE4F52CF54E
:05008D002DE4F52EF545
:050092002F7530007520
:06009700367E753730755E
:06009D00386D753979751C
:0600A3003A33753B5B756A
:0600A9003C5F753D70751F
:0600AF003E7F753F7B75EA
:0600B500407775411F7544
:0600BB00424E75433D7545
:0600C100444F7545477530
:0700C7004638754711E4F50E
:0500CE0048F549E4F5CE
:0500D3004AF54BE4F5C5
:0500D8004CF54DE4F5BC
:0500DD004EF54FE4F5B3
:0400E20050F551750F
:0600E60052007553007585
:0600EC005400755500757B
:0600F2005A4A755B6A75B5
:0600F8005C08755DDA757D
:0600FE005E0A755FBA7591
:06010400600A756122751E
:06010A0062147563D0755C
:06011000641575657475AD
:0601160066167567D47542
:05011C0068057569147F
:0301210002000ECB
:05000E0012136480FEE6
:0A012400C28112023FC28002023FB6
:0D012E00C28112023FD28012023FD2810234
:02013B00023F81
:0A013D00A200928112023FD280124C
:07014700023FC28002023FEB
:0E014E00D28012023FA28192D712023FC280DD
:06015C0012023FA2D722AF
:04016200AA827B00F2
:03016600BB0800D3
:0A0169005025EA30E704D28180023D
:02017300C28147
:0E017500C002C00312023FD28012023FC280BD
:0D01830012023FD003D002EA2AFA0B80D608
:0301900002014E1B
:060193007A00D2817B001E
:03019900BB0800A0
:0E019C005029EA2AFAD280C002C00312023FA4
:0E01AA00D003D002A281E4334202C002C0039F
:0E01B80012023FC28012023FD003D0020B8021
:0101C600D266
:0301C7008A822207
:0A01CA00C008858108AA82C0021255
:0A01D4000124D0028A82120162E5C4
:0A01DE000824FDF88682120162E594
:0A01E8000824FCF88682120162125E
:0501F200012ED00822DF
:0A01F700C008858108AA82C0021228
:0C0201000124D0028A82C002120162E5D2
:0A020D000824FDF886821201621237
:0D021700012E120124D00274014AF582125A
:0D0224000162120193AA82D2F0C00285F09F
:050231002012013D1246
:09023600012ED0028A82D00822B8
:02023F007A053E
:03024100DAFE22C0
:0A024400AA82AB837C007D007E00DF
:09024E00C3ED9AEE9B50138C07DE
:03025700BF5A008B
:05025A0050030F80F8C5
:09025F008F040DBD00E90E80E6DC
:010268002273
:0E026900900064120244E4C0E0746BC0E075C3
:0D02770082D01203311581158190006412B0
:0E02840002447407C0E07468C0E07582D012B6
:0E0292000331158115817401C0E0746BC0E06A
:0E02A0007582D0120331158115817403C0E000
:0E02AE00741AC0E07582D012033115811581DB
:0E02BC00E4C0E07419C0E07582D01203311561
:0C02CA00811581E522C40354F8FAC0023B
:0E02D600741BC0E07582D012033115811581B2
:0C02E400E521C40354F8FAC002741CC0E9
:0E02F000E07582D0120331158115817403C0B0
:0E02FE00E0741DC0E07582D012033115811529
:0D030C00817422C0E07437C0E07582D01209
:0E031900033115811581E4C0E07438C0E07531
:0A03270082D01203311581158122E6
:08033100C008858108AA82E5DD
:0A0339000824FCF8E6C0E0E5082403
:0E034300FDF8E6C0E08A821201CA158115811C
:03035100D00822AF
:08035400C008858108AA82E5BA
:0C035C000824FDF8E6C0E08A821201F7D8
:050368001581D0082200
:0A036D00C008858108C082C083C06B
:0D037700F005810581743BC0E07582D01255
:0C0384000354AD8215818D30743CC0E044
:0C0390007582D0120354AD8215818D31AE
:0E039C00743DC0E07582D0120354AD8215810D
:0C03AA008D32743EC0E07582D012035406
:0C03B600AD8215818D33743FC0E075826C
:0C03C200D0120354AD8215818D347440BC
:0D03CE00C0E07582D0120354AD8215818D00
:0603DB0035AE307D00AFDD
:0A03E100317A00EF4205EA4206A857
:0C03EB00080886820886830886F0ED1260
:0803F70018AFA3EE1218AFA825
:0C03FF000808740226FAE40836FB0886A1
:0A040B0004AD32E5082404F808A649
:0A04150005187600AF337D00E508FE
:0E041F002404F8E6420708E642058A828B8331
:0C042D008CF0EF1218AFA3ED1218AFA86E
:0C0439000808740426FAE40836FB088664
:0A04450004AD34E5082404F808A60D
:0A044F0005187600AF357D00E508C2
:0E0459002404F8E6420708E642058A828B83F7
:0C0467008CF0EF1218AFA3ED1218AF8557
:050473000881D0082201
:0A047800C008858108C082C083C05F
:0D048200F0058105817448C0E07582D0123C
:0C048F000354AD8215818D357447C0E028
:0C049B007582D0120354AD8215818D349F
:0E04A7007446C0E07582D0120354AD821581F8
:0C04B5008D337445C0E07582D0120354F2
:0C04C100AD8215818D327444C0E075825C
:0C04CD00D0120354AD8215818D317443B0
:0D04D900C0E07582D0120354AD8215818DF4
:0A04E600308D067D00AF317A00EF83
:0C04F0004205EA4206A808088682088639
:0E04FC00830886F0ED1218AFA3EE1218AFA819
:0C050A000808740226FAE40836FB088694
:0A05160004AD32E5082404F808A63D
:0A05200005187600AF337D00E508F2
:0E052A002404F8E6420708E642058A828B8325
:0C0538008CF0EF1218AFA3ED1218AFA862
:0C0544000808740426FAE40836FB088658
:0A05500004AD34E5082404F808A601
:0A055A0005187600AF357D00E508B6
:0E0564002404F8E6420708E642058A828B83EB
:0C0572008CF0EF1218AFA3ED1218AF854B
:05057E000881D00822F5
:0E0583007480C0E0746BC0E07582D01203314A
:0A05910015811581900064020244F8
:04059B00AA827B00B5
:03059F00BB080096
:0E05A200500CC2A2EA2A92A4FAD2A20B80EF59
:0105B0002228
:0605B100C008858108125C
:0A05B700059BE50824FDF88682127A
:0505C100059BD008229B
:0A05C600C008858108C082E5812489
:0D05D00007F581C2A37467C0E075820812B0
:0E05DD0005B11581E4C0E07582081205B11564
:0E05EB0081E4C0E07582081205B11581D2A32B
:0C05F900C2A3C0407582071205B1158135
:0E060500E4C0E07582071205B11581E4C0E083
:0E0613007582071205B11581D2A3C2A3745BD4
:0E062100C0E07582061205B11581E4C0E075D7
:0E062F0082061205B11581E4C0E07582061244
:0E063D0005B11581D2A3C2A3745BC0E0758223
:0D064B00051205B11581E4C0E075820512AD
:0E06580005B11581E4C0E07582051205B115EB
:0706660081D2A37B007C00A0
:0C066D00A8080886057E007404C39DFDEB
:0E067900E49EFEC3EB9DEC9E503CC2A38B059D
:0D0687000DC003C004C005E4C0E08D821268
:0E06940005B11581D005C005E4C0E08D8212CD
:0E06A20005B11581D005E4C0E08D821205B1CE
:0E06B0001581D004D003D2A30BBB00B10C8087
:0106BE00AE8D
:0C06BF00C2A3A808087404C396FBC00383
:0E06CB00E4C0E08B821205B11581D003C0039C
:0E06D900E4C0E08B821205B11581D003E4C0AD
:0E06E700E08B821205B11581D2A37B007C004E
:0C06F500A8080886057E00C3EB9DEC9E63
:0507010040030208287E
:0E0706007D007E008B07ECCF25E0CF33CF25A2
:0C071400E0CF33FAA8080808740CC39F5B
:0E072000F6E49A08F67410C39FFFE49AFAA854
:0A072E00080808E5082404F9E6F7BE
:040738000809E6F7CF
:0C073C00E5082404F8C3E69F08E69A4094
:04074800030207E2BF
:0C074C00C007C002E5082404F886F00590
:07075800F07A017F0080062A
:06075F00EA2AFAEF33FF65
:0C076500D5F0F7E50824FCF8E652020885
:0C077100E65207EA4FD002D0076058E5BE
:0A077D00082404F8E5082406F974C6
:0C0787000356F7097700E5082406F8C3C4
:0C079300740396E408964039E50824063B
:09079F00F8E625E0269007A87396
:0707A8000207B40207BB02C7
:0507AF0007C40207CDA4
:0707B4000DBD001C0E8019B1
:0907BB0074022DFDE43EFE8010E5
:0907C40074042DFDE43EFE8007E3
:0707CD0074082DFDE43EFE5F
:0B07D400E5082404F806B60002080641
:0307DF0002073CD2
:0C07E200C2A3ED2436F886028B057404D7
:0E07EE00C39DFDC003C004C005C0028D821271
:0E07FC0005B11581D005C005E4C0E08D821264
:0E080A0005B11581D005E4C0E08D821205B164
:0D0818001581D004D003D2A30BBB00010C4E
:030825000206F5D3
:06082800850881D00822C2
:0A082E00C008858108C082C083C0A5
:0E083800F0E5812407F581743CC0E0E4C0E0E7
:0B084600E50824F9F88682088683127A
:0C0851001966AD82AE8315811581E508A3
:0E085D002404F8A60508A606743CC0E0E4C01A
:0C086B00E0E50824F9F886820886831274
:0C08770018E4AF82AD8315811581E508FF
:0A0883002406F8A60708A6057F006A
:03088D00BF0200A7
:05089000400302094ACB
:0C089500C2A3C007740AC0E0E4C0E0E5A4
:0C08A100082406F88682088683121921BC
:0C08AD00AD8215811581D007ED2436F8CE
:0E08B9008605EF04FEC006C007C0058E821241
:0C08C70005B11581D007D006E50824FB20
:0E08D300F8EF26FDE40836FA0886038D828AC7
:0E08E100838BF01218C8FDC006C007C0058E3C
:0C08EF00821205B11581D007D006A808C0
:0E08FB0008EF26FAE40836FB0886048A828B92
:0E090900838CF01218C8FAC006C0028E82124B
:0C09170005B11581740AC0E0E4C0E0E501
:0C092300082406F8868208868312187EDD
:0C092F00AA82AB8315811581D006E50873
:0D093B002406F8A60208A603D2A38E070228
:02094800088D18
:0E094A00C2A37401C0E07582031205B11581CD
:0C095800E50824FBF8740226FAE40836D7
:0E096400FB0886048A828B838CF01218C8FA76
:0C097200C0027582031205B11581A808AF
:0E097E0008740226FAE40836FB0886048A8212
:0E098C008B838CF01218C8FAC0027582031219
:0C099A0005B11581D2A3C2A3E508240416
:0C09A600F9E72436F88602C002758204CE
:0C09B2001205B11581E50824FBF8740360
:0E09BE0026FAE40836FB0886048A828B838CB6
:0E09CC00F01218C8FAC0027582041205B115A7
:0C09DA0081A80808740326FAE40836FB24
:0E09E6000886048A828B838CF01218C8FAC02F
:0D09F400027582041205B11581D2A37F04A3
:030A0100BF08002B
:0E0A0400506BC2A3EF04FAC002C007E4C0E0CA
:0C0A12008A821205B11581D007D002E5E0
:0C0A1E000824FBF8EF26FBE40836FC0877
:0E0A2A0086058B828C838DF01218C8FBC002EB
:0E0A3800C007C0038A821205B11581D007D015
:0C0A460002A80808EF26FBE40836FC08B4
:0E0A520086058B828C838DF01218C8FBC002C3
:0E0A6000C0038A821205B11581D002D2A38A8A
:030A6E000780906E
:060A7100850881D0082277
:0A0A7700C008858108C082C083C05A
:0E0A8100F0E5812407F581743CC0E0E4C0E09C
:0B0A8F00E50824F9F88682088683122F
:0C0A9A001966AD82AE8315811581E50858
:0E0AA6002404F8A60508A606743CC0E0E4C0CF
:0C0AB400E0E50824F9F886820886831229
:0C0AC00018E4AF82AD8315811581E508B4
:0A0ACC002406F8A60708A6057F001F
:030AD600BF02005C
:050AD9004003020B9335
:0C0ADE00C2A3C007740AC0E0E4C0E0E559
:0C0AEA00082406F8868208868312192171
:0C0AF600AD8215811581D007ED2436F883
:0E0B02008605EF04FEC006C007C0058E8212F5
:0C0B100005B11581D007D006E50824FBD4
:0E0B1C00F8EF26FDE40836FA0886038D828A7B
:0E0B2A00838BF01218C8FDC006C007C0058EF0
:0C0B3800821205B11581D007D006A80874
:0E0B440008EF26FAE40836FB0886048A828B46
:0E0B5200838CF01218C8FAC006C0028E821200
:0C0B600005B11581740AC0E0E4C0E0E5B6
:0C0B6C00082406F8868208868312187E92
:0C0B7800AA82AB8315811581D006E50828
:0D0B84002406F8A60208A603D2A38E0702DD
:020B91000AD682
:0E0B9300C2A37401C0E07582031205B1158182
:0C0BA100E50824FBF8740226FAE408368C
:0E0BAD00FB0886048A828B838CF01218C8FA2B
:0C0BBB00C0027582031205B11581A80864
:0E0BC70008740226FAE40836FB0886048A82C7
:0E0BD5008B838CF01218C8FAC00275820312CE
:0C0BE30005B11581D2A3C2A3E5082404CB
:0C0BEF00F9E72436F88602C00275820483
:0C0BFB001205B11581E50824FBF8740315
:0E0C070026FAE40836FB0886048A828B838C6A
:0E0C1500F01218C8FAC0027582041205B1155B
:0C0C230081A80808740326FAE40836FBD8
:0E0C2F000886048A828B838CF01218C8FAC0E3
:0E0C3D00027582041205B11581D2A3C2A3C0B4
:0A0C4B00427582081205B11581E51B
:0C0C55000824FBF8740726FAE40836FBBC
:0E0C61000886048A828B838CF01218C8FAC0B1
:0C0C6F00027582081205B11581A8080862
:0E0C7B00740726FAE40836FB0886048A828B8A
:0D0C8900838CF01218C8FAC00275820812A0
:0E0C960005B11581D2A3C2A3743EC0E07582E1
:0C0CA400071205B11581E50824FBF87467
:0E0CB0000626FAE40836FB0886048A828B8347
:0E0CBE008CF01218C8FAC0027582071205B138
:0C0CCC001581A80808740626FAE4083612
:0E0CD800FB0886048A828B838CF01218C8FAFF
:0E0CE600C0027582071205B11581D2A3C2A308
:0D0CF4007405C0E07582061205B11581E59A
:0C0D01000824FBF8740526FAE40836FB11
:0E0D0D000886048A828B838CF01218C8FAC004
:0C0D1B00027582061205B11581A80808B7
:0E0D2700740526FAE40836FB0886048A828BDF
:0D0D3500838CF01218C8FAC00275820612F5
:0E0D420005B11581D2A3C2A3E4C0E0758205FD
:0C0D50001205B11581E50824FBF87404BD
:0E0D5C0026FAE40836FB0886048A828B838C14
:0E0D6A00F01218C8FAC0027582051205B11504
:0C0D780081A80808740426FAE40836FB81
:0E0D84000886048A828B838CF01218C8FAC08D
:0C0D9200027582051205B11581D2A385FF
:050D9E000881D00822CD
:0A0DA300C008858108C082C083C02B
:0E0DAD00F0E5812407F581743CC0E0E4C0E06D
:0B0DBB00E50824F9F886820886831200
:0C0DC6001966AD82AE8315811581E50829
:0E0DD2002404F8A60508A606743CC0E0E4C0A0
:0C0DE000E0E50824F9F8868208868312FA
:0C0DEC0018E4AF82AD8315811581E50885
:0A0DF8002406F8A60708A6057F00F0
:030E0200BF02002C
:050E05004003020EBFD6
:0C0E0A00C2A3C007740AC0E0E4C0E0E529
:0C0E1600082406F8868208868312192141
:0C0E2200AD8215811581D007ED2436F853
:0E0E2E008605EF04FEC006C007C0058E8212C6
:0C0E3C0005B11581D007D006E50824FBA5
:0E0E4800F8EF26FDE40836FA0886038D828A4C
:0E0E5600838BF01218C8FDC006C007C0058EC1
:0C0E6400821205B11581D007D006A80845
:0E0E700008EF26FAE40836FB0886048A828B17
:0E0E7E00838CF01218C8FAC006C0028E8212D1
:0C0E8C0005B11581740AC0E0E4C0E0E587
:0C0E9800082406F8868208868312187E63
:0C0EA400AA82AB8315811581D006E508F9
:0D0EB0002406F8A60208A603D2A38E0702AE
:020EBD000E0223
:0E0EBF00C2A37401C0E07582031205B1158153
:0C0ECD00E50824FBF8740226FAE408365D
:0E0ED900FB0886048A828B838CF01218C8FAFC
:0C0EE700C0027582031205B11581A80835
:0E0EF30008740226FAE40836FB0886048A8298
:0E0F01008B838CF01218C8FAC002758203129E
:0C0F0F0005B11581D2A3C2A3E50824049B
:0C0F1B00F9E72436F88602C00275820453
:0C0F27001205B11581E50824FBF87403E5
:0E0F330026FAE40836FB0886048A828B838C3B
:0E0F4100F01218C8FAC0027582041205B1152C
:0C0F4F0081A80808740326FAE40836FBA9
:0E0F5B000886048A828B838CF01218C8FAC0B4
:0E0F6900027582041205B11581D2A3C2A3C085
:0A0F7700417582081205B11581E5ED
:0C0F81000824FBF8740726FAE40836FB8D
:0E0F8D000886048A828B838CF01218C8FAC082
:0C0F9B00027582081205B11581A8080833
:0E0FA700740726FAE40836FB0886048A828B5B
:0D0FB500838CF01218C8FAC0027582081271
:0C0FC20005B11581D2A3C2A3C044758202
:0C0FCE00071205B11581E50824FBF8743A
:0E0FDA000626FAE40836FB0886048A828B831A
:0E0FE8008CF01218C8FAC0027582071205B10B
:0C0FF6001581A80808740626FAE40836E5
:0E100200FB0886048A828B838CF01218C8FAD1
:0E101000C0027582071205B11581D2A3C2A3DA
:0D101E00745BC0E07582061205B11581E516
:0C102B000824FBF8740526FAE40836FBE4
:0E1037000886048A828B838CF01218C8FAC0D7
:0C104500027582061205B11581A808088A
:0E105100740526FAE40836FB0886048A828BB2
:0D105F00838CF01218C8FAC00275820612C8
:0E106C0005B11581D2A3C2A37411C0E0758234
:0C107A00051205B11581E50824FBF8748F
:0E1086000426FAE40836FB0886048A828B836F
:0E1094008CF01218C8FAC0027582051205B160
:0C10A2001581A80808740426FAE408363A
:0E10AE00FB0886048A828B838CF01218C8FA25
:0D10BC00C0027582051205B11581D2A38511
:0510C9000881D008229F
:0210CE007A01A5
:0510D0007408B50200E8
:0610D500401DC2A37B03D5
:0E10DB00C002C003E4C0E08A821205B1158194
:0B10E900D003D002DBECD2A30A80DCB5
:0110F40022D9
:0410F500C2A37A0315
:0E10F900C0027401C0E075820C1205B11581B1
:0A110700D002DAEED2A3C2A37A03ED
:0E111100C002E4C0E075820F1205B11581D056
:09111F0002DAEFD2A3C2A37A03A5
:0E112800C002E4C0E07582091205B11581D045
:0911360002DAEFD2A3C2A37A038E
:0E113F00C0027407C0E075820B1205B1158165
:0A114D00D002DAEED2A3C2A37A03A7
:0E115700C002740EC0E075820A1205B1158147
:09116500D002DAEED2A30210CE92
:0C116E00C020C0E0C0F0C082C083C002FE
:0E117A00C003C004C005C006C007C000C0010D
:0C118800C0D075D000758CFC758A18AAC8
:041194004AAB4B0512
:061198004AE4B54A02051D
:01119E004B05
:0A119F00BA1008BB2705E4F54AF575
:0111A9004BFA
:0B11AA007464C0E0E4C0E0854A828568
:0C11B5004B831218E4AA82AB831581154D
:0A11C10081EA4B7005E552F4F55287
:0C11CB0074E8C0E07403C0E0854A82852F
:0C11D7004B831218E4AA82AB831581152B
:0A11E30081EA4B700DE553F4F5535B
:0711ED00054CE4B54C0205BE
:0111F4004DAD
:0911F50074F02555500302126745
:0A11FE0020B60A7401B55605E4F5A9
:031208004AF54B59
:0A120B0030B64BE5567047C3E54AC4
:0B12150094E8E54B64809483401B8547
:0A12200055F005F07A007B8080078E
:07122A00C3EB13FBEA13FA0A
:09123100D5F0F6EA4248EB42490F
:07123A007410B55502801885
:0912410005557410B55511E4F5D2
:04124A004AF54BE531
:05124E0048B54607E56C
:0512530049B54702054A
:011258005540
:0C125900A2B6E433FA8A5624FF92B702D2
:0212650013472D
:0A1267007410B5552874D0B54A1272
:0A1271007407B54B0D755601D2B697
:06127B00E4F548F5497599
:02128100550016
:0C128300E552600820B705D2B7021347FF
:05128F00C2B702134785
:0A1294007411B5553E74D0B54A1729
:08129E007407B54B12055575EC
:0612A6005900E4F558F5C3
:0412AC0057F54CF5B1
:0412B0004DF54AF5B9
:0112B4004BEE
:0A12B500C374C8954A7480854BF09D
:0C12BF0063F08095F0400CE552600820C0
:0712CB00B705D2B70213477B
:0512D200C2B702134742
:0A12D7007412B5554F7401B557317C
:0A12E1007407B5582C7407B559279F
:0412EB00854C4E855B
:0312EF004D4FE57B
:0712F2005045516013C3E5F4
:0412F9004E9550E5D9
:0A12FD004F64808551F063F0809586
:03130700F050069D
:04130A00854E508537
:02130E004F513D
:02131000055581
:0A13120020B2110554740AB5542BE3
:07131C00755517E4F54AF5D1
:031323004B8021DB
:05132600755400801C5D
:0A132B007413B5551720B2110554D4
:0A133500740AB5540D755511E4F566
:05133F004AF54B80039C
:03134400755400DD
:0E134700D0D0D001D000D007D006D005D00401
:0D135500D003D002D083D082D0F0D0E0D001
:02136200203237
:0A136400C008858108058105810598
:0D136E00817A00D281D280C0021210F512E7
:0E137B000269D002758901758CFC758A18D242
:0A138900AFD2A9D28C755601D2B67E
:0913930074F02555500302145BAF
:0C139C00E5550303543FFB8BF005F07493
:0313A800018002BF
:0213AB0025E03B
:0B13AD00D5F0FBFAC002C003C048C02E
:0C13B800498B821205C615811581D003F7
:0A13C400D002E552604B740355554A
:0813CE00F5F005F07410800237
:0213D60025E010
:0E13D800D5F0FB4202C2A37404C39BFCC0020A
:0E13E600C003C0047408C0E08C821205B1156B
:0E13F40081D004C004E4C0E08C821205B11563
:0E14020081D004E4C0E08C821205B11581D0C7
:0514100003D002D2A38D
:05141500EB2B25E0FBBC
:04141A00EBB55500D9
:05141E0040030216BAB4
:0A1423008BF005F07C007D8080074F
:07142D00C3ED13FDEC13FCFD
:0A143400D5F0F6AE48AF49EE5204C1
:0E143E00EF5205EC4D601374035BF5F005F002
:04144C007410800296
:0214500025E095
:06145200D5F0FBFC420294
:031458000B80BF47
:07145B007410B55502800575
:051462007411B55527CF
:0A146700E55260177AFFC002C0488A
:0C147100C0497582041205C61581158162
:05147D00D0020216BAC6
:0C1482007A00C0021210CED0020216BA8E
:07148E007412B55502800342
:0314950002165AE2
:0A14980090002475F04012036DA8C7
:0614A2000808A62408A6BC
:0414A80025AD26AE9A
:0714AC0027E5082403F8A660
:0414B30057AF58AB2C
:0A14B70059A80808C374A096748FAA
:0E14C1000886F063F08095F05021C374A09D62
:0E14CF00748F8EF063F08095F050127A1074D6
:0814DD00F92558500302158F98
:0714E500E55804FF02158F1A
:0C14EC00A80808C3E6946008E664809439
:0E14F80070E433FC601DC374A09D748F8EF0F1
:0C15060063F08095F0500E7A2074F925F7
:0915120059407AE55904FB80748C
:0E151B00EC6017C3ED9460EE64809470500C89
:0A1529007A40E5586060E55814FFB1
:02153300805ADC
:0C153500A80808C374A096748F0886F004
:0E15410063F08095F05017C3ED9460EE648067
:0B154F009470500C7A80E5596036E57E
:05155A005914FB803074
:0E155F00C374A09D748F8EF063F08095F050E1
:0A156D001FE55770177407B55812F8
:0A1577007407B5590DE5082403F8C8
:08158100E55704F67B007F0032
:041589007A0480025E
:02158D007A02E0
:0A158F00E5082403F8E6B5570280D2
:01159900034E
:03159A000216270F
:0A159D00E5577044EFB55802801CBA
:0A15A700EF245AF886048559F00578
:0515B100F074808002CF
:0215B600C3135D
:0B15B800D5F0FBFD5C6004AF588064C0
:0615C300EBB55902805E49
:0A15C900E558245AF886048BF0055B
:0515D300F074808002AD
:0215D800C3133B
:0B15DA00D5F0FBFD5C6046AB59804281
:0615E500EFB55802801C66
:0A15EB00EF2462F886048559F0052C
:0515F500F0748080028B
:0215FA00C31319
:0B15FC00D5F0FBFD5C6004AF588020C0
:06160700EBB55902801A48
:0A160D00E5582462F886048BF0050E
:05161700F07480800268
:02161C00C313F6
:09161E00D5F0FBFD5C6002AB5944
:08162700E5082403F886578F43
:06162F00588B59C002C0F7
:041635004CC04D74E4
:0A16390062C0E07400C0E07440C01D
:0E164300E090005A75F04012082EE58124FB5D
:09165100F5811216C7D002806079
:0A165A007413B5555B7A00E5526089
:03166400027AFF08
:09166700E5536025C002C050C02B
:06167000517462C0E07439
:0C16760000C0E07440C0E090005A75F025
:0E16820040120DA3E58124FBF581D0028023E8
:07169000C002C04EC04F7400
:0A16970062C0E07400C0E07440C0BF
:0E16A100E090005A75F040120A77E58124FBB4
:0416AF00F581D002EF
:0716B300C0021216C7D002AD
:0B16BA00EAF4F590021393850881D03C
:0216C5000822F9
:0516C700E55270012254
:0E16CC00C2A3E4C0E07582001205B11581E5ED
:0C16DA0057702FC0E07582001205B1159A
:0916E60081E558245AF8860285BA
:0816EF0059F005F0748080023F
:0216F700C3131B
:0C16F900D5F0FB4202E55804F582C00267
:071705001205B115818033CC
:08170C007401B5572EE55824C5
:0A17140062F886028559F005F074B2
:03171E00808002C6
:02172100C313F0
:0C172300D5F0FB4202E55804F582C0023C
:0E172F001205B11581E4C0E07582001205B10B
:02173D00158114
:03173F00D2A32210
:0C174200AA82AB83C002C0037462C0E046
:0C174E007400C0E07440C0E090005A75C8
:0C175A00F04012082EE58124FBF581E52B
:04176600527001229A
:0E176A00C2A3E4C0E07582001205B11581E54E
:0C17780057702FC0E07582001205B115FB
:0917840081E558245AF88602851B
:08178D0059F005F074808002A0
:02179500C3137C
:0C179700D5F0FB4202E55804F582C002C8
:0717A3001205B1158180332E
:0817AA007401B5572EE5582427
:0A17B20062F886028559F005F07414
:0317BC0080800228
:0217BF00C31352
:0C17C100D5F0FB4202E55804F582C0029E
:0E17CD001205B11581E4C0E07582001205B16D
:0217DB00158176
:0317DD00D2A32272
:0C17E000AA82AB83C002C0037462C0E0A8
:0C17EC007400C0E07440C0E090005A752A
:0C17F800F040120DA3E58124FBF581E513
:0418040052700122FB
:0E180800C2A3E4C0E07582001205B11581E5AF
:0C18160057702FC0E07582001205B1155C
:0918220081E558245AF88602857C
:08182B0059F005F07480800201
:02183300C313DD
:0C183500D5F0FB4202E55804F582C00229
:071841001205B1158180338F
:081848007401B5572EE5582488
:0A18500062F886028559F005F07475
:03185A0080800289
:02185D00C313B3
:0C185F00D5F0FB4202E55804F582C002FF
:0E186B001205B11581E4C0E07582001205B1CE
:021879001581D7
:03187B00D2A322D3
:0A187E00E58124FEF8E6F918E6F80B
:051888007A10E4FBFCF6
:0E188D00E58225E0F582E58333F583EB33FB3E
:0E189B00EC33FCEB98F5F0EC994006FCABF05A
:0318A90043820176
:0318AC00DADF225E
:06004200E478FFF6D8FD92
:080020007900E94400601B7A3D
:05002800009019A7780B
:03002D000075A0BB
:0A00300000E493F2A308B8000205F3
:08003A00A0D9F4DAF275A0FF71
:0E18AF0020F71030F6118883A88220F507F686
:0518BD00A88375830003
:0118C2002203
:0318C300F280F7B9
:0218C600F0220E
:080048007800E84400600A7929
:030050000075A098
:0600530000E4F309D8FCF3
:080059007800E84400600C7916
:0B00610000900000E4F0A3D8FCD9FAE6
:030013007581698B
:0A0016001219A3E582600302000E38
:0E18C80020F71430F6148883A88220F507E676
:0618D600A88375830022C7
:0318DC00E280F7B0
:0318DF00E493226D
:0218E200E02202
:0E18E400C2D5E58330E70DD2D5E4C39582F579
:0618F20082E49583F583FA
:0E18F800E58124FEF8E630E70918E4C396F611
:04190600E40896F665
:0E190A00860118860012192B30D50BE4C39508
:0819180082F582E49583F5835A
:0119200022A4
:0A192100E58124FEF8860118860017
:06192B00E84960367A0174
:0E193100E825E0F8E933400EF9E58298E583F9
:06193F009940030A80EC50
:02194500C3E9F4
:0519470013F9E813F89C
:0E194C00C3E58298F5F0E583994005F58385A3
:02195A00F08219
:09195C00C3E913F9E813F8DAE716
:01196500225F
:0E196600C2D5E58330E70DD2D5E4C39582F5F6
:0619740082E49583F58377
:0E197A00E58124FEF8E630E70AB2D518E4C392
:0519880096F6E408964C
:0E198D00F918E6F812188830D50BE4C39582DD
:07199B00F582E49583F5835A
:0119A2002222
:0419A3007582002227
:00000001FF
